:020000040000FA
:10000000600200201D0300002503000027030000FC
:10001000290300002B0300002D0300000000000056
:100020000000000000000000000000002F0300009E
:10003000310300000000000033030000350300001E
:1000400037030000390300003B0300003D030000BC
:100050003F0300004103000043030000450300008C
:1000600047030000490300004B0300004D0300005C
:100070004F0300005103000053030000550300002C
:1000800057030000590300005B0300005D030000FC
:100090005F030000610300006303000065030000CC
:1000A00067030000690300006B0300006D0300009C
:1000B0006F0300007103000073030000750300006C
:1000C00077030000790300007B0300007D0300003C
:1000D0007F0300008103000083030000850300000C
:1000E0008703000089030000000000008B0300006C
:1000F0008D0300008F0300009103000093030000B4
:100100009503000097030000990300009B03000083
:1001100000000000000000009D0300009F0300009D
:10012000A1030000A3030000A5030000A703000033
:10013000A9030000AB030000AD030000AF03000003
:1001400000000000000000000000000000000000AF
:10015000B1030000B3030000B5030000B7030000C3
:10016000000000000000000000000000000000008F
:10017000000000000000000000000000000000007F
:10018000000000000000000000000000000000006F
:10019000000000000000000000000000000000005F
:1001A000000000000000000000000000000000004F
:1001B000B9030000BB030000BD030000BF03000043
:1001C000C1030000C3030000C5030000C703000013
:1001D000C9030000CB030000CD030000CF030000E3
:1001E000D1030000D3030000D5030000000000008D
:1001F00000000000D7030000D9030000DB0300006B
:10020000DD030000DF03000000000000000000002C
:10021000E1030000E3030000E5030000E703000042
:10022000E9030000EB030000ED030000EF03000012
:10023000F1030000F3030000F5030000F7030000E2
:10024000F9030000FB030000FD030000FF030000B2
:10025000010400000304000005040000070400007E
:10026000090400000B0400000D04000000F002F877
:1002700000F044F814A696E8000CB244B344DA4502
:1002800001D100F03BF8BAE80F000FA696E8300065
:10029000A5EB040504EB0607AAEB0704A7F1010789
:1002A0004FEA15154FEA3414A4F10104AC4201D30E
:1002B00000F024F813F0010F18BFFB1A43F00103FC
:1002C00000F001F8DBE71847BC050000CC05000092
:1002D000704700000023002400250026103A28BFA4
:1002E00078C1FBD8520728BF30C148BF0B607047A8
:1002F0001FB500F0BAFA1FBD10B510BD00F09BF895
:100300001146FFF7F5FF00F083FA00F0B9F803B4E7
:10031000FFF7F2FF03BC00F0C1F800003F48804740
:100320003F480047FEE7FEE7FEE7FEE7FEE7FEE7A1
:10033000FEE7FEE7FEE7FEE7FEE7FEE7FEE7FEE795
:10034000FEE7FEE7FEE7FEE7FEE7FEE7FEE7FEE785
:10035000FEE7FEE7FEE7FEE7FEE7FEE7FEE7FEE775
:10036000FEE7FEE7FEE7FEE7FEE7FEE7FEE7FEE765
:10037000FEE7FEE7FEE7FEE7FEE7FEE7FEE7FEE755
:10038000FEE7FEE7FEE7FEE7FEE7FEE7FEE7FEE745
:10039000FEE7FEE7FEE7FEE7FEE7FEE7FEE7FEE735
:1003A000FEE7FEE7FEE7FEE7FEE7FEE7FEE7FEE725
:1003B000FEE7FEE7FEE7FEE7FEE7FEE7FEE7FEE715
:1003C000FEE7FEE7FEE7FEE7FEE7FEE7FEE7FEE705
:1003D000FEE7FEE7FEE7FEE7FEE7FEE7FEE7FEE7F5
:1003E000FEE7FEE7FEE7FEE7FEE7FEE7FEE7FEE7E5
:1003F000FEE7FEE7FEE7FEE7FEE7FEE7FEE7FEE7D5
:10040000FEE7FEE7FEE7FEE7FEE7FEE7FEE70000A9
:1004100004480549034A054B7047000041060000A7
:100420006D020000600000206002002060000020DB
:10043000704770477047754600F02CF8AE460500CF
:100440006946534620F00700854618B020B5FFF7EF
:10045000DFFFBDE820404FF000064FF000074FF0EF
:1004600000084FF0000BAC46ACE8C009ACE8C0098E
:10047000ACE8C009ACE8C00921F007018D4670471F
:1004800010B50446AFF300802046BDE81040FFF7EA
:100490003EBF0000004870470000002001491820BE
:1004A000ABBEFEE7260002007047000082B001905C
:1004B00000200090FFE700980199884206D2FFE7EC
:1004C00000BFFFE7009801300090F4E702B07047EA
:1004D00080B586B043F22A00C4F22340049043F66C
:1004E0003700C4F23930039043F23450C4F236205E
:1004F000029043F23120C4F233100190FFE7002054
:100500000090FFE7009803285BDCFFE744F2FC3132
:10051000C4F20201086820F00F000860009A012070
:1005200000FA02F20868104308604FF47A70FFF78F
:10053000BDFF46F2FC30C4F200000068C00600288F
:1005400007D5FFE7009901A810F821008DF81700E2
:1005500038E046F2FC30C4F2000000688006002853
:1005600008D5FFE7009901A800EB810040788DF8DD
:10057000170027E046F2FC30C4F200000068400695
:10058000002808D5FFE7009901A800EB81008078DA
:100590008DF8170016E046F2FC30C4F20000006847
:1005A0000006002808D5FFE7009901A800EB8100AC
:1005B000C0788DF8170005E0FFE700980130009043
:1005C000A0E79CE79DF8170006B080BD4EF20861D9
:1005D000C4F20F01086840F01400086046F21C5194
:1005E000C4F20001086840F0F000086046F20041E3
:1005F000C4F20001086820F0F000086046F21451CF
:10060000C4F20001086840F0F000086044F21C5198
:10061000C4F20201086840F00F00086044F2004193
:10062000C4F20201086840F00F00086044F2FC3197
:10063000C4F20201086820F00F0008607047000053
:1006400081B04EF68851CEF20001086840F4700087
:1006500008604EF27001C4F20F0142F61000C0F2C1
:10066000807008604EF26002C4F20F0243F6D1209F
:10067000C0F28E70106042F64250C0F29E101060C0
:1006800042F60000C0F28010086000200090FFE7F2
:100690000098C0087C2805D8FFE7FFE700980130E4
:1006A0000090F5E74EF26001C4F20F0140F64250AF
:1006B000C0F29E1008604EF27001C4F20F0140F6C5
:1006C0000000C0F28010086000200090FFE7009852
:1006D000C0087C2805D8FFE7FFE7009801300090AC
:1006E000F5E74EF26001C4F20F0140F64250C0F24D
:1006F000DE100860FFE74EF25000C4F20F00006801
:1007000000F04000402801D0FFE7F4E74EF260011E
:10071000C4F20F0140F24250C0F2DE1008604EF207
:100720007001C4F20F014FF0C0700860002000900B
:10073000FFE7009842F20F71884205D8FFE7FFE714
:10074000009801300090F4E701B070474EF2186154
:10075000C4F20F01086840F0010008604EF2086121
:10076000C4F20F01086840F0010008604CF230014B
:10077000C4F20001002008604CF22403C4F200031C
:1007800008221A604CF22803C4F200032C221A60DB
:100790004CF22C03C4F2000370221A604CF6C872AB
:1007A000C4F20002106044F22042C4F20002106859
:1007B00040F00300106044F21C52C4F200021068C2
:1007C00040F00300106044F22C52C4F200021068A2
:1007D000112363F30700106040F201300860704796
:1007E00081B08DF80300FFE74CF21800C4F200005E
:1007F00000688006002801D5FFE7F5E79DF80300B3
:100800004CF20001C4F20001086001B07047000022
:1008100080B582B000200190FFF798FFFFF7D6FE69
:100820000D20FFF7DDFF0A20FFF7DAFFFFE7FFF7F4
:100830004FFE8DF803009DF80300FFF7D1FF0D2058
:10084000FFF7CEFF0A20FFF7CBFFFFE746F2FC30B1
:10085000C4F20000006810F0F00F01D0FFE7F5E7E8
:100860004CF25030FFF722FEE1E7F1EE100A4FF6AE
:10087000FF71C0F2C03120EA010040F04070E1EEAB
:10088000100A704794080000000000206002000079
:04089000D40200008E
:040000050000031DD7
:00000001FF
