:020000040000FA
:10000000600200201D0300002503000027030000FC
:10001000290300002B0300002D0300000000000056
:100020000000000000000000000000002F0300009E
:10003000310300000000000033030000350300001E
:1000400037030000390300003B0300003D030000BC
:100050003F0300004103000043030000450300008C
:1000600047030000490300004B0300004D0300005C
:100070004F0300005103000053030000550300002C
:1000800057030000590300005B0300005D030000FC
:100090005F030000610300006303000065030000CC
:1000A00067030000690300006B0300006D0300009C
:1000B0006F0300007103000073030000750300006C
:1000C00077030000790300007B0300007D0300003C
:1000D0007F0300008103000083030000850300000C
:1000E0008703000089030000000000008B0300006C
:1000F0008D0300008F0300009103000093030000B4
:100100009503000097030000990300009B03000083
:1001100000000000000000009D0300009F0300009D
:10012000A1030000A3030000A5030000A703000033
:10013000A9030000AB030000AD030000AF03000003
:1001400000000000000000000000000000000000AF
:10015000B1030000B3030000B5030000B7030000C3
:10016000000000000000000000000000000000008F
:10017000000000000000000000000000000000007F
:10018000000000000000000000000000000000006F
:10019000000000000000000000000000000000005F
:1001A000000000000000000000000000000000004F
:1001B000B9030000BB030000BD030000BF03000043
:1001C000C1030000C3030000C5030000C703000013
:1001D000C9030000CB030000CD030000CF030000E3
:1001E000D1030000D3030000D5030000000000008D
:1001F00000000000D7030000D9030000DB0300006B
:10020000DD030000DF03000000000000000000002C
:10021000E1030000E3030000E5030000E703000042
:10022000E9030000EB030000ED030000EF03000012
:10023000F1030000F3030000F5030000F7030000E2
:10024000F9030000FB030000FD030000FF030000B2
:10025000010400000304000005040000070400007E
:10026000090400000B0400000D04000000F002F877
:1002700000F044F814A696E8000CB244B344DA4502
:1002800001D100F03BF8BAE80F000FA696E8300065
:10029000A5EB040504EB0607AAEB0704A7F1010789
:1002A0004FEA15154FEA3414A4F10104AC4201D30E
:1002B00000F024F813F0010F18BFFB1A43F00103FC
:1002C00000F001F8DBE718471808000028080000D4
:1002D000704700000023002400250026103A28BFA4
:1002E00078C1FBD8520728BF30C148BF0B607047A8
:1002F0001FB500F0DEFB1FBD10B510BD00F09BF870
:100300001146FFF7F5FF00F0BBFB00F0B9F803B4AE
:10031000FFF7F2FF03BC00F0C1F800003F48804740
:100320003F480047FEE7FEE7FEE7FEE7FEE7FEE7A1
:10033000FEE7FEE7FEE7FEE7FEE7FEE7FEE7FEE795
:10034000FEE7FEE7FEE7FEE7FEE7FEE7FEE7FEE785
:10035000FEE7FEE7FEE7FEE7FEE7FEE7FEE7FEE775
:10036000FEE7FEE7FEE7FEE7FEE7FEE7FEE7FEE765
:10037000FEE7FEE7FEE7FEE7FEE7FEE7FEE7FEE755
:10038000FEE7FEE7FEE7FEE7FEE7FEE7FEE7FEE745
:10039000FEE7FEE7FEE7FEE7FEE7FEE7FEE7FEE735
:1003A000FEE7FEE7FEE7FEE7FEE7FEE7FEE7FEE725
:1003B000FEE7FEE7FEE7FEE7FEE7FEE7FEE7FEE715
:1003C000FEE7FEE7FEE7FEE7FEE7FEE7FEE7FEE705
:1003D000FEE7FEE7FEE7FEE7FEE7FEE7FEE7FEE7F5
:1003E000FEE7FEE7FEE7FEE7FEE7FEE7FEE7FEE7E5
:1003F000FEE7FEE7FEE7FEE7FEE7FEE7FEE7FEE7D5
:10040000FEE7FEE7FEE7FEE7FEE7FEE7FEE70000A9
:1004100004480549034A054B7047000039090000AC
:100420006D020000600000206002002060000020DB
:10043000704770477047754600F02CF8AE460500CF
:100440006946534620F00700854618B020B5FFF7EF
:10045000DFFFBDE820404FF000064FF000074FF0EF
:1004600000084FF0000BAC46ACE8C009ACE8C0098E
:10047000ACE8C009ACE8C00921F007018D4670471F
:1004800010B50446AFF300802046BDE81040FFF7EA
:100490003EBF0000004870470000002001491820BE
:1004A000ABBEFEE7260002007047000080B582B0B8
:1004B00045F20000C4F200000090012100220192E8
:1004C00000F0ECF80098019A022100F0E7F800989B
:1004D000019A042100F0E2F80098019A082100F046
:1004E000DDF802B080BD000084B0039000208DF8DC
:1004F0000B0003980090B0F1402F28D0FFE7009840
:1005000045F20001C4F20001884224D0FFE70098C0
:1005100046F20001C4F20001884220D0FFE70098B3
:1005200047F20001C4F2000188421CD0FFE70098A6
:1005300044F20001C4F20201884218D0FFE700989B
:1005400045F20001C4F20201884214D017E00020F5
:100550008DF80B0014E001208DF80B0010E0022054
:100560008DF80B000CE003208DF80B0008E0042050
:100570008DF80B0004E005208DF80B0000E00EE084
:100580009DF80B10012000FA01F24EF20860C4F24F
:100590000F0001681143016000680190FFE704B09B
:1005A0007047000082B001908DF803108DF8022092
:1005B0008DF80130019845F20001C4F20201884231
:1005C00005D1FFE79DF80300C00770B9FFE7019868
:1005D00047F20001C4F20001884216D1FFE79DF8FE
:1005E00003000006002810D5FFE7019944F24B30C4
:1005F000C4F64F40C1F820059DF803200199D1F8B9
:1006000024051043C1F82405FFE79DF802000128E6
:1006100009D1FFE79DF803200199D1F800041043A8
:10062000C1F8000408E09DF803200199D1F8000406
:100630009043C1F80004FFE79DF80100012809D1AB
:10064000FFE79DF803200199D1F810051043C1F888
:10065000100508E09DF803200199D1F8100590439A
:10066000C1F81005FFE79DF803200199D1F828058E
:100670009043C1F828059DF803200199D1F8200482
:100680009043C1F820049DF803200199D1F81C057E
:100690001043C1F81C0502B07047000083B00290FF
:1006A0008DF807108DF80620029800F57F700090F5
:1006B0009DF8060038B1FFE79DF80720009908680B
:1006C0001043086006E09DF80720009908689043F1
:1006D0000860FFE703B0704780B582B08DF807006F
:1006E00045F20000C4F2000010210022FFF7D6FFFF
:1006F000FFF7DCFE9DF80700000900F0F3F800F0BA
:10070000D3F8FFF7D3FE9DF8070000F00F0000F0CC
:10071000E9F800F0C9F8022000F094F902B080BDB9
:1007200080B582B08DF8070045F20000C4F20000E9
:1007300010210122FFF7B2FFFFF7B8FE9DF8070076
:10074000000900F0CFF800F0AFF8FFF7AFFE9DF81A
:10075000070000F00F0000F0C5F800F0A5F802B0A7
:1007600080BD000080B584B003900291019203988F
:10077000012805D1FFE702987F308DF8030004E0DF
:100780000298BF308DF80300FFE79DF80300FFF7E4
:10079000A3FFFFE70198007840B1FFE701980078D8
:1007A000FFF7BEFF019801300190F3E704B080BD70
:1007B00080B588B045F20000C4F200000190FFF758
:1007C00093FE019801220692002303931146FFF73E
:1007D000E9FE0198039B069A02210591FFF7E2FECC
:1007E0000198039B069A0421FFF7DCFE0198039B06
:1007F000069A0821FFF7D6FE0198039B069A10215E
:100800000091FFF7CFFE0198039B069A20210291E9
:10081000FFF7C8FE00990198039AFFF73FFF019880
:100820000299039AFFF73AFF642000F00BF90320C6
:10083000049000F02BF80A20079000F003F90498C8
:1008400000F024F8079800F0FDF8049800F01EF876
:10085000079800F0F7F8059800F018F8079800F0EE
:10086000F1F82820FFF738FF0C20FFF735FF0620AE
:10087000FFF732FF0698FFF72FFF079800F0E2F826
:100880008020FFF729FF08B080BD000080B582B04E
:100890008DF80700FFF70AFE9DF8070000F022F828
:1008A00000F002F802B080BD80B584B00120039052
:1008B00000F0C8F8039A45F20000C4F2000001906D
:1008C00020210291FFF7EAFE039800F0BBF801989F
:1008D00002990022FFF7E2FE039800F0B3F804B09B
:1008E00080BD000080B582B08DF807009DF807003C
:1008F00000F0010245F20000C4F200000090012166
:10090000FFF7CCFE00989DF80710C1F340020221CA
:10091000FFF7C4FE00989DF80710C1F38002042180
:10092000FFF7BCFE00989DF80710C1F3C002082134
:10093000FFF7B4FE02B080BD81B04EF68851CEF212
:100940000001086840F4700008604EF27001C4F2C3
:100950000F0142F61000C0F2807008604EF2600293
:10096000C4F20F0243F6D120C0F28E70106042F63E
:100970004250C0F29E10106042F60000C0F280109B
:10098000086000200090FFE70098C0087C2805D888
:10099000FFE7FFE7009801300090F5E74EF26001B5
:1009A000C4F20F0140F64250C0F29E1008604EF2B1
:1009B0007001C4F20F0140F60000C0F28010086020
:1009C00000200090FFE70098C0087C2805D8FFE7CA
:1009D000FFE7009801300090F5E74EF26001C4F2A5
:1009E0000F0140F64250C0F2DE100860FFE74EF201
:1009F0005000C4F20F00006800F04000402801D011
:100A0000FFE7F4E74EF26001C4F20F0140F24250FA
:100A1000C0F2DE1008604EF27001C4F20F014FF018
:100A2000C070086000200090FFE7009842F20F714C
:100A3000884205D8FFE7FFE7009801300090F4E70F
:100A400001B0704783B0029000200190FFE7019849
:100A50000299884211D2FFE700200090FFE700983A
:100A6000C72805D8FFE7FFE7009801300090F6E7B8
:100A7000FFE7019801300190E9E703B070470000FB
:100A800080B582B000200190FFF792FE40F6D82298
:100A9000C0F20002012100910846FFF763FE0099B1
:100AA00040F6CC22C0F200020220FFF75BFEFFE717
:100AB000FEE7F1EE100A4FF6FF71C0F2C03120EAF6
:100AC000010040F04070E1EE100A70474D4953209C
:100AD0006E6F2E2D2031320053414B534849000098
:100AE000F00A00000000002060020000D4020000B4
:040000050000031DD7
:00000001FF
