:020000040000FA
:10000000600200201D0300002503000027030000FC
:10001000290300002B0300002D0300000000000056
:100020000000000000000000000000002F0300009E
:10003000310300000000000033030000350300001E
:1000400037030000390300003B0300003D030000BC
:100050003F0300004103000043030000450300008C
:1000600047030000490300004B0300004D0300005C
:100070004F0300005103000053030000550300002C
:1000800057030000590300005B0300005D030000FC
:100090005F030000610300006303000065030000CC
:1000A00067030000690300006B0300006D0300009C
:1000B0006F0300007103000073030000750300006C
:1000C00077030000790300007B0300007D0300003C
:1000D0007F0300008103000083030000850300000C
:1000E0008703000089030000000000008B0300006C
:1000F0008D0300008F0300009103000093030000B4
:100100009503000097030000990300009B03000083
:1001100000000000000000009D0300009F0300009D
:10012000A1030000A3030000A5030000A703000033
:10013000A9030000AB030000AD030000AF03000003
:1001400000000000000000000000000000000000AF
:10015000B1030000B3030000B5030000B7030000C3
:10016000000000000000000000000000000000008F
:10017000000000000000000000000000000000007F
:10018000000000000000000000000000000000006F
:10019000000000000000000000000000000000005F
:1001A000000000000000000000000000000000004F
:1001B000B9030000BB030000BD030000BF03000043
:1001C000C1030000C3030000C5030000C703000013
:1001D000C9030000CB030000CD030000CF030000E3
:1001E000D1030000D3030000D5030000000000008D
:1001F00000000000D7030000D9030000DB0300006B
:10020000DD030000DF03000000000000000000002C
:10021000E1030000E3030000E5030000E703000042
:10022000E9030000EB030000ED030000EF03000012
:10023000F1030000F3030000F5030000F7030000E2
:10024000F9030000FB030000FD030000FF030000B2
:10025000010400000304000005040000070400007E
:10026000090400000B0400000D04000000F002F877
:1002700000F044F814A696E8000CB244B344DA4502
:1002800001D100F03BF8BAE80F000FA696E8300065
:10029000A5EB040504EB0607AAEB0704A7F1010789
:1002A0004FEA15154FEA3414A4F10104AC4201D30E
:1002B00000F024F813F0010F18BFFB1A43F00103FC
:1002C00000F001F8DBE71847CC050000DC05000072
:1002D000704700000023002400250026103A28BFA4
:1002E00078C1FBD8520728BF30C148BF0B607047A8
:1002F0001FB500F0C2FA1FBD10B510BD00F09BF88D
:100300001146FFF7F5FF00F07DFA00F0B9F803B4ED
:10031000FFF7F2FF03BC00F0C1F800003F48804740
:100320003F480047FEE7FEE7FEE7FEE7FEE7FEE7A1
:10033000FEE7FEE7FEE7FEE7FEE7FEE7FEE7FEE795
:10034000FEE7FEE7FEE7FEE7FEE7FEE7FEE7FEE785
:10035000FEE7FEE7FEE7FEE7FEE7FEE7FEE7FEE775
:10036000FEE7FEE7FEE7FEE7FEE7FEE7FEE7FEE765
:10037000FEE7FEE7FEE7FEE7FEE7FEE7FEE7FEE755
:10038000FEE7FEE7FEE7FEE7FEE7FEE7FEE7FEE745
:10039000FEE7FEE7FEE7FEE7FEE7FEE7FEE7FEE735
:1003A000FEE7FEE7FEE7FEE7FEE7FEE7FEE7FEE725
:1003B000FEE7FEE7FEE7FEE7FEE7FEE7FEE7FEE715
:1003C000FEE7FEE7FEE7FEE7FEE7FEE7FEE7FEE705
:1003D000FEE7FEE7FEE7FEE7FEE7FEE7FEE7FEE7F5
:1003E000FEE7FEE7FEE7FEE7FEE7FEE7FEE7FEE7E5
:1003F000FEE7FEE7FEE7FEE7FEE7FEE7FEE7FEE7D5
:10040000FEE7FEE7FEE7FEE7FEE7FEE7FEE70000A9
:1004100004480549034A054B70470000F9060000EF
:100420006D020000600000206002002060000020DB
:10043000704770477047754600F02CF8AE460500CF
:100440006946534620F00700854618B020B5FFF7EF
:10045000DFFFBDE820404FF000064FF000074FF0EF
:1004600000084FF0000BAC46ACE8C009ACE8C0098E
:10047000ACE8C009ACE8C00921F007018D4670471F
:1004800010B50446AFF300802046BDE81040FFF7EA
:100490003EBF0000004870470000002001491820BE
:1004A000ABBEFEE7260002007047000081B000905E
:1004B000FFE70098411E009108B1FFE7F9E701B09E
:1004C0007047000084B0039000208DF80B00039863
:1004D0000090B0F1402F28D0FFE7009845F20001CE
:1004E000C4F20001884224D0FFE7009846F20001E0
:1004F000C4F20001884220D0FFE7009847F20001D3
:10050000C4F2000188421CD0FFE7009844F20001C9
:10051000C4F20201884218D0FFE7009845F20001BA
:10052000C4F20201884214D017E000208DF80B00BD
:1005300014E001208DF80B0010E002208DF80B0074
:100540000CE003208DF80B0008E004208DF80B0070
:1005500004E005208DF80B0000E00EE09DF80B1084
:10056000012000FA01F24EF20860C4F20F000168A7
:100570001143016000680190FFE704B0704700007C
:1005800082B001908DF803108DF802208DF80130B3
:10059000019845F20001C4F20201884205D1FFE74B
:1005A0009DF80300C00770B9FFE7019847F200010A
:1005B000C4F20001884216D1FFE79DF8030000064F
:1005C000002810D5FFE7019944F24B30C4F64F40A4
:1005D000C1F820059DF803200199D1F824051043A6
:1005E000C1F82405FFE79DF80200012809D1FFE7C3
:1005F0009DF803200199D1F800041043C1F80004CC
:1006000008E09DF803200199D1F800049043C1F857
:100610000004FFE79DF80100012809D1FFE79DF8DC
:1006200003200199D1F810051043C1F8100508E026
:100630009DF803200199D1F810059043C1F81005E9
:10064000FFE79DF803200199D1F828059043C1F8F0
:1006500028059DF803200199D1F820049043C1F8A2
:1006600020049DF803200199D1F81C051043C1F81E
:100670001C0502B07047000083B002908DF807108F
:10068000029800F57F700090009800689DF80710B0
:100690000840002818BF012003B0704783B00290C3
:1006A0008DF80710029800F57F7000909DF80720E4
:1006B000009908685040086003B0704783B002900A
:1006C0008DF807108DF80620029800F57F700090D5
:1006D0009DF8060038B1FFE79DF8072000990868EB
:1006E0001043086006E09DF80720009908689043D1
:1006F0000860FFE703B0704781B04EF68851CEF234
:100700000001086840F4700008604EF27001C4F205
:100710000F0142F61000C0F2807008604EF26002D5
:10072000C4F20F0243F6D120C0F28E70106042F680
:100730004250C0F29E10106042F60000C0F28010DD
:10074000086000200090FFE70098C0087C2805D8CA
:10075000FFE7FFE7009801300090F5E74EF26001F7
:10076000C4F20F0140F64250C0F29E1008604EF2F3
:100770007001C4F20F0140F60000C0F28010086062
:1007800000200090FFE70098C0087C2805D8FFE70C
:10079000FFE7009801300090F5E74EF26001C4F2E7
:1007A0000F0140F64250C0F2DE100860FFE74EF243
:1007B0005000C4F20F00006800F04000402801D053
:1007C000FFE7F4E74EF26001C4F20F0140F242503D
:1007D000C0F2DE1008604EF27001C4F20F014FF05B
:1007E000C070086000200090FFE7009842F20F718F
:1007F000884205D8FFE7FFE7009801300090F4E752
:1008000001B0704780B584B000200190039045F29C
:100810000000C4F202000090FFF754FE0098019B14
:10082000022101220292FFF7ABFE0098019A029B7F
:100830001021FFF7A5FEFFE745F20000C4F2020019
:100840001021FFF719FF70B9FFE745F20000C4F26D
:1008500002000221FFF722FF43F68000C0F20100F0
:10086000FFF724FE08E045F20000C4F20200022176
:100870000022FFF723FFFFE7DEE7F1EE100A4FF655
:10088000FF71C0F2C03120EA010040F04070E1EE9B
:10089000100A7047A4080000000000206002000059
:0408A000D40200007E
:040000050000031DD7
:00000001FF
